{
  "contractName": "Doctor",
  "abi": [
    {
      "anonymous": false,
      "inputs": [
        {
          "indexed": false,
          "name": "fName",
          "type": "string"
        },
        {
          "indexed": false,
          "name": "lName",
          "type": "string"
        }
      ],
      "name": "DoctorInfo",
      "type": "event"
    },
    {
      "constant": false,
      "inputs": [
        {
          "name": "_Did",
          "type": "uint256"
        },
        {
          "name": "_fName",
          "type": "string"
        },
        {
          "name": "_lName",
          "type": "string"
        }
      ],
      "name": "setDoctor",
      "outputs": [],
      "payable": false,
      "stateMutability": "nonpayable",
      "type": "function"
    },
    {
      "constant": true,
      "inputs": [
        {
          "name": "_Did",
          "type": "uint256"
        }
      ],
      "name": "getDoctor",
      "outputs": [
        {
          "name": "",
          "type": "string"
        },
        {
          "name": "",
          "type": "string"
        },
        {
          "name": "",
          "type": "uint256"
        }
      ],
      "payable": false,
      "stateMutability": "view",
      "type": "function"
    },
    {
      "constant": false,
      "inputs": [
        {
          "name": "_Did",
          "type": "uint256"
        },
        {
          "name": "_Pid",
          "type": "uint256"
        }
      ],
      "name": "setPid",
      "outputs": [],
      "payable": false,
      "stateMutability": "nonpayable",
      "type": "function"
    },
    {
      "constant": true,
      "inputs": [
        {
          "name": "_addrPatient",
          "type": "address"
        },
        {
          "name": "_Did",
          "type": "uint256"
        },
        {
          "name": "_Pid",
          "type": "uint256"
        }
      ],
      "name": "view_patient",
      "outputs": [
        {
          "name": "",
          "type": "string"
        },
        {
          "name": "",
          "type": "string"
        },
        {
          "name": "",
          "type": "string"
        },
        {
          "name": "",
          "type": "uint256"
        },
        {
          "name": "",
          "type": "uint256"
        }
      ],
      "payable": false,
      "stateMutability": "view",
      "type": "function"
    }
  ],
  "bytecode": "0x608060405234801561001057600080fd5b50610a53806100206000396000f3fe608060405234801561001057600080fd5b506004361061004c5760003560e01c80630184a0e61461005157806307a5926c1461008957806369b0a72d14610240578063944023c61461035a575b600080fd5b6100876004803603604081101561006757600080fd5b8101908080359060200190929190803590602001909291905050506104b6565b005b6100df6004803603606081101561009f57600080fd5b81019080803573ffffffffffffffffffffffffffffffffffffffff16906020019092919080359060200190929190803590602001909291905050506104d4565b60405180806020018060200180602001868152602001858152602001848103845289818151815260200191508051906020019080838360005b83811015610133578082015181840152602081019050610118565b50505050905090810190601f1680156101605780820380516001836020036101000a031916815260200191505b50848103835288818151815260200191508051906020019080838360005b8381101561019957808201518184015260208101905061017e565b50505050905090810190601f1680156101c65780820380516001836020036101000a031916815260200191505b50848103825287818151815260200191508051906020019080838360005b838110156101ff5780820151818401526020810190506101e4565b50505050905090810190601f16801561022c5780820380516001836020036101000a031916815260200191505b509850505050505050505060405180910390f35b61026c6004803603602081101561025657600080fd5b8101908080359060200190929190505050610696565b604051808060200180602001848152602001838103835286818151815260200191508051906020019080838360005b838110156102b657808201518184015260208101905061029b565b50505050905090810190601f1680156102e35780820380516001836020036101000a031916815260200191505b50838103825285818151815260200191508051906020019080838360005b8381101561031c578082015181840152602081019050610301565b50505050905090810190601f1680156103495780820380516001836020036101000a031916815260200191505b509550505050505060405180910390f35b6104b46004803603606081101561037057600080fd5b81019080803590602001909291908035906020019064010000000081111561039757600080fd5b8201836020820111156103a957600080fd5b803590602001918460018302840111640100000000831117156103cb57600080fd5b91908080601f016020809104026020016040519081016040528093929190818152602001838380828437600081840152601f19601f8201169050808301925050505050505091929192908035906020019064010000000081111561042e57600080fd5b82018360208201111561044057600080fd5b8035906020019184600183028401116401000000008311171561046257600080fd5b91908080601f016020809104026020016040519081016040528093929190818152602001838380828437600081840152601f19601f820116905080830192505050505050509192919290505050610820565b005b80600080848152602001908152602001600020600201819055505050565b606080606060008060008890508073ffffffffffffffffffffffffffffffffffffffff1663bcdc023389896040518363ffffffff1660e01b8152600401808381526020018281526020019250505060006040518083038186803b15801561053a57600080fd5b505afa15801561054e573d6000803e3d6000fd5b505050506040513d6000823e3d601f19601f8201168201806040525060a081101561057857600080fd5b81019080805164010000000081111561059057600080fd5b828101905060208101848111156105a657600080fd5b81518560018202830111640100000000821117156105c357600080fd5b505092919060200180516401000000008111156105df57600080fd5b828101905060208101848111156105f557600080fd5b815185600182028301116401000000008211171561061257600080fd5b5050929190602001805164010000000081111561062e57600080fd5b8281019050602081018481111561064457600080fd5b815185600182028301116401000000008211171561066157600080fd5b505092919060200180519060200190929190805190602001909291905050509550955095509550955050939792965093509350565b606080600080600085815260200190815260200160002060000160008086815260200190815260200160002060010160008087815260200190815260200160002060020154828054600181600116156101000203166002900480601f0160208091040260200160405190810160405280929190818152602001828054600181600116156101000203166002900480156107705780601f1061074557610100808354040283529160200191610770565b820191906000526020600020905b81548152906001019060200180831161075357829003601f168201915b50505050509250818054600181600116156101000203166002900480601f01602080910402602001604051908101604052809291908181526020018280546001816001161561010002031660029004801561080c5780601f106107e15761010080835404028352916020019161080c565b820191906000526020600020905b8154815290600101906020018083116107ef57829003601f168201915b505050505091509250925092509193909250565b816000808581526020019081526020016000206000019080519060200190610849929190610982565b50806000808581526020019081526020016000206001019080519060200190610873929190610982565b507f03cd103fc1ac378ae8499352b19cda38006d0e13f2cf486e072871bc8776155d8282604051808060200180602001838103835285818151815260200191508051906020019080838360005b838110156108db5780820151818401526020810190506108c0565b50505050905090810190601f1680156109085780820380516001836020036101000a031916815260200191505b50838103825284818151815260200191508051906020019080838360005b83811015610941578082015181840152602081019050610926565b50505050905090810190601f16801561096e5780820380516001836020036101000a031916815260200191505b5094505050505060405180910390a1505050565b828054600181600116156101000203166002900490600052602060002090601f016020900481019282601f106109c357805160ff19168380011785556109f1565b828001600101855582156109f1579182015b828111156109f05782518255916020019190600101906109d5565b5b5090506109fe9190610a02565b5090565b610a2491905b80821115610a20576000816000905550600101610a08565b5090565b9056fea165627a7a7230582067c41e8955e1b03e14a6323d9729f16cb7ab8e7aef0ba984d1d33321ba6e37410029",
  "source": "    pragma solidity >=0.4.18;\r\n     import \"./Health.sol\";\r\n    contract Doctor{\r\n        struct doctors{\r\n            string fName;\r\n            string lName;\r\n            uint Pid;\r\n        }\r\n    \r\n        mapping(uint => doctors) map;\r\n        \r\n        \r\n       event DoctorInfo(\r\n         string fName,\r\n         string lName\r\n         \r\n         );\r\n         \r\n         function setDoctor(uint _Did,string memory _fName, string memory _lName /*,string memory _Pid*/) public {\r\n           map[_Did].fName = _fName;\r\n           map[_Did].lName = _lName;\r\n         \r\n          \r\n          emit DoctorInfo(_fName,_lName/*,_Pid*/);\r\n            }\r\n            \r\n             function getDoctor(uint _Did) view public returns (string memory ,string memory , uint) {\r\n           return (map[_Did].fName, map[_Did].lName,map[_Did].Pid);\r\n       }\r\n       \r\n       function setPid(uint _Did, uint _Pid)public {\r\n           map[_Did].Pid = _Pid;\r\n       }\r\n\r\n       function view_patient(address _addrPatient,uint _Did,uint _Pid)public view  returns(string memory ,string memory ,string memory, uint, uint){\r\n           Health A = Health(_addrPatient);\r\n           return A.doctor_view(_Did,_Pid);\r\n       }\r\n    }\r\n    \r\n    contract Hospital is Doctor{\r\n          uint[] public patients_list;\r\n          uint[] public doctors_list;\r\n          \r\n          function add_doctor(uint _did)public{\r\n              doctors_list.push(_did);\r\n          }\r\n          \r\n           function get_did()public view  returns(uint[] memory){\r\n              return doctors_list;\r\n          }\r\n          \r\n          function add_patient(uint _pid)public{\r\n              patients_list.push(_pid);\r\n          }\r\n          \r\n          function request_list()public view  returns(uint[] memory){\r\n              return patients_list;\r\n          }\r\n          \r\n          function setPid_and_Did(address _addrPatient, uint _Pid, uint _Did)public{\r\n              Health patient = Health(_addrPatient);\r\n              Doctor.setPid(_Did,_Pid);\r\n              patient.setDid(_Pid,_Did);\r\n              \r\n          }\r\n\r\n           function remove_Pid(uint _Pid)public{\r\n              for(uint i=0;i<patients_list.length;i++){\r\n             if(_Pid==patients_list[i])\r\n             {\r\n                 for(uint j = i;j<patients_list.length-1;j++)\r\n                 {\r\n                     patients_list[j] = patients_list[j+1];\r\n                 }\r\n                delete patients_list[patients_list.length-1];\r\n                patients_list.length--;\r\n             }\r\n         }\r\n          }\r\n          \r\n          \r\n    }",
  "sourcePath": "C:\\Users\\HP\\demo2\\contracts\\Hospital.sol",
  "compiler": {
    "name": "solc",
    "version": "0.5.8+commit.23d335f2.Emscripten.clang"
  },
  "schemaVersion": "3.0.10",
  "updatedAt": "2019-07-09T06:42:46.539Z",
  "devdoc": {
    "methods": {}
  },
  "userdoc": {
    "methods": {}
  }
}