{
  "contractName": "Doctor",
  "abi": [
    {
      "anonymous": false,
      "inputs": [
        {
          "indexed": false,
          "name": "fName",
          "type": "string"
        },
        {
          "indexed": false,
          "name": "lName",
          "type": "string"
        },
        {
          "indexed": false,
          "name": "age",
          "type": "uint256"
        }
      ],
      "name": "DoctorInfo",
      "type": "event"
    },
    {
      "anonymous": false,
      "inputs": [
        {
          "indexed": false,
          "name": "DOB",
          "type": "string"
        },
        {
          "indexed": false,
          "name": "specialization",
          "type": "string"
        }
      ],
      "name": "DoctorInfo1",
      "type": "event"
    },
    {
      "constant": false,
      "inputs": [
        {
          "name": "_Did",
          "type": "uint256"
        },
        {
          "name": "_fName",
          "type": "string"
        },
        {
          "name": "_lName",
          "type": "string"
        },
        {
          "name": "_age",
          "type": "uint256"
        }
      ],
      "name": "setDoctor",
      "outputs": [],
      "payable": false,
      "stateMutability": "nonpayable",
      "type": "function"
    },
    {
      "constant": false,
      "inputs": [
        {
          "name": "_Did",
          "type": "uint256"
        },
        {
          "name": "_DOB",
          "type": "string"
        },
        {
          "name": "_specialization",
          "type": "string"
        }
      ],
      "name": "setDoctor1",
      "outputs": [],
      "payable": false,
      "stateMutability": "nonpayable",
      "type": "function"
    },
    {
      "constant": true,
      "inputs": [
        {
          "name": "_Did",
          "type": "uint256"
        }
      ],
      "name": "getDoctor",
      "outputs": [
        {
          "name": "",
          "type": "string"
        },
        {
          "name": "",
          "type": "string"
        },
        {
          "name": "",
          "type": "uint256"
        },
        {
          "name": "",
          "type": "string"
        },
        {
          "name": "",
          "type": "string"
        },
        {
          "name": "",
          "type": "uint256"
        }
      ],
      "payable": false,
      "stateMutability": "view",
      "type": "function"
    },
    {
      "constant": false,
      "inputs": [
        {
          "name": "_Did",
          "type": "uint256"
        },
        {
          "name": "_Pid",
          "type": "uint256"
        }
      ],
      "name": "setPid",
      "outputs": [],
      "payable": false,
      "stateMutability": "nonpayable",
      "type": "function"
    },
    {
      "constant": true,
      "inputs": [
        {
          "name": "_addrPatient",
          "type": "address"
        },
        {
          "name": "_Did",
          "type": "uint256"
        },
        {
          "name": "_Pid",
          "type": "uint256"
        }
      ],
      "name": "view_patient",
      "outputs": [
        {
          "name": "",
          "type": "string"
        },
        {
          "name": "",
          "type": "string"
        },
        {
          "name": "",
          "type": "string"
        },
        {
          "name": "",
          "type": "uint256"
        },
        {
          "name": "",
          "type": "uint256"
        }
      ],
      "payable": false,
      "stateMutability": "view",
      "type": "function"
    }
  ],
  "bytecode": "0x608060405234801561001057600080fd5b50610fad806100206000396000f3fe608060405234801561001057600080fd5b50600436106100575760003560e01c80630184a0e61461005c5780630519fbb41461009457806307a5926c146101f057806369b0a72d146103a7578063dedfa9a6146105a0575b600080fd5b6100926004803603604081101561007257600080fd5b810190808035906020019092919080359060200190929190505050610706565b005b6101ee600480360360608110156100aa57600080fd5b8101908080359060200190929190803590602001906401000000008111156100d157600080fd5b8201836020820111156100e357600080fd5b8035906020019184600183028401116401000000008311171561010557600080fd5b91908080601f016020809104026020016040519081016040528093929190818152602001838380828437600081840152601f19601f8201169050808301925050505050505091929192908035906020019064010000000081111561016857600080fd5b82018360208201111561017a57600080fd5b8035906020019184600183028401116401000000008311171561019c57600080fd5b91908080601f016020809104026020016040519081016040528093929190818152602001838380828437600081840152601f19601f820116905080830192505050505050509192919290505050610724565b005b6102466004803603606081101561020657600080fd5b81019080803573ffffffffffffffffffffffffffffffffffffffff1690602001909291908035906020019092919080359060200190929190505050610886565b60405180806020018060200180602001868152602001858152602001848103845289818151815260200191508051906020019080838360005b8381101561029a57808201518184015260208101905061027f565b50505050905090810190601f1680156102c75780820380516001836020036101000a031916815260200191505b50848103835288818151815260200191508051906020019080838360005b838110156103005780820151818401526020810190506102e5565b50505050905090810190601f16801561032d5780820380516001836020036101000a031916815260200191505b50848103825287818151815260200191508051906020019080838360005b8381101561036657808201518184015260208101905061034b565b50505050905090810190601f1680156103935780820380516001836020036101000a031916815260200191505b509850505050505050505060405180910390f35b6103d3600480360360208110156103bd57600080fd5b8101908080359060200190929190505050610a48565b604051808060200180602001878152602001806020018060200186815260200185810385528b818151815260200191508051906020019080838360005b8381101561042b578082015181840152602081019050610410565b50505050905090810190601f1680156104585780820380516001836020036101000a031916815260200191505b5085810384528a818151815260200191508051906020019080838360005b83811015610491578082015181840152602081019050610476565b50505050905090810190601f1680156104be5780820380516001836020036101000a031916815260200191505b50858103835288818151815260200191508051906020019080838360005b838110156104f75780820151818401526020810190506104dc565b50505050905090810190601f1680156105245780820380516001836020036101000a031916815260200191505b50858103825287818151815260200191508051906020019080838360005b8381101561055d578082015181840152602081019050610542565b50505050905090810190601f16801561058a5780820380516001836020036101000a031916815260200191505b509a505050505050505050505060405180910390f35b610704600480360360808110156105b657600080fd5b8101908080359060200190929190803590602001906401000000008111156105dd57600080fd5b8201836020820111156105ef57600080fd5b8035906020019184600183028401116401000000008311171561061157600080fd5b91908080601f016020809104026020016040519081016040528093929190818152602001838380828437600081840152601f19601f8201169050808301925050505050505091929192908035906020019064010000000081111561067457600080fd5b82018360208201111561068657600080fd5b803590602001918460018302840111640100000000831117156106a857600080fd5b91908080601f016020809104026020016040519081016040528093929190818152602001838380828437600081840152601f19601f82011690508083019250505050505050919291929080359060200190929190505050610d57565b005b80600080848152602001908152602001600020600201819055505050565b81600080858152602001908152602001600020600501908051906020019061074d929190610edc565b50806000808581526020019081526020016000206004019080519060200190610777929190610edc565b507f01b20a45137da8481875b77161a5fb3d4db6ae802739b5125f5b86ab8df40c688282604051808060200180602001838103835285818151815260200191508051906020019080838360005b838110156107df5780820151818401526020810190506107c4565b50505050905090810190601f16801561080c5780820380516001836020036101000a031916815260200191505b50838103825284818151815260200191508051906020019080838360005b8381101561084557808201518184015260208101905061082a565b50505050905090810190601f1680156108725780820380516001836020036101000a031916815260200191505b5094505050505060405180910390a1505050565b606080606060008060008890508073ffffffffffffffffffffffffffffffffffffffff1663bcdc023389896040518363ffffffff1660e01b8152600401808381526020018281526020019250505060006040518083038186803b1580156108ec57600080fd5b505afa158015610900573d6000803e3d6000fd5b505050506040513d6000823e3d601f19601f8201168201806040525060a081101561092a57600080fd5b81019080805164010000000081111561094257600080fd5b8281019050602081018481111561095857600080fd5b815185600182028301116401000000008211171561097557600080fd5b5050929190602001805164010000000081111561099157600080fd5b828101905060208101848111156109a757600080fd5b81518560018202830111640100000000821117156109c457600080fd5b505092919060200180516401000000008111156109e057600080fd5b828101905060208101848111156109f657600080fd5b8151856001820283011164010000000082111715610a1357600080fd5b505092919060200180519060200190929190805190602001909291905050509550955095509550955050939792965093509350565b606080600060608060008060008881526020019081526020016000206000016000808981526020019081526020016000206001016000808a8152602001908152602001600020600301546000808b81526020019081526020016000206005016000808c81526020019081526020016000206004016000808d815260200190815260200160002060020154858054600181600116156101000203166002900480601f016020809104026020016040519081016040528092919081815260200182805460018160011615610100020316600290048015610b675780601f10610b3c57610100808354040283529160200191610b67565b820191906000526020600020905b815481529060010190602001808311610b4a57829003601f168201915b50505050509550848054600181600116156101000203166002900480601f016020809104026020016040519081016040528092919081815260200182805460018160011615610100020316600290048015610c035780601f10610bd857610100808354040283529160200191610c03565b820191906000526020600020905b815481529060010190602001808311610be657829003601f168201915b50505050509450828054600181600116156101000203166002900480601f016020809104026020016040519081016040528092919081815260200182805460018160011615610100020316600290048015610c9f5780601f10610c7457610100808354040283529160200191610c9f565b820191906000526020600020905b815481529060010190602001808311610c8257829003601f168201915b50505050509250818054600181600116156101000203166002900480601f016020809104026020016040519081016040528092919081815260200182805460018160011615610100020316600290048015610d3b5780601f10610d1057610100808354040283529160200191610d3b565b820191906000526020600020905b815481529060010190602001808311610d1e57829003601f168201915b5050505050915095509550955095509550955091939550919395565b826000808681526020019081526020016000206000019080519060200190610d80929190610edc565b50816000808681526020019081526020016000206001019080519060200190610daa929190610edc565b5080600080868152602001908152602001600020600301819055507fc5f0be3a69b6bd1b125dbd40bbc292c70bfd050b726312b66c5f3993d69b0184838383604051808060200180602001848152602001838103835286818151815260200191508051906020019080838360005b83811015610e33578082015181840152602081019050610e18565b50505050905090810190601f168015610e605780820380516001836020036101000a031916815260200191505b50838103825285818151815260200191508051906020019080838360005b83811015610e99578082015181840152602081019050610e7e565b50505050905090810190601f168015610ec65780820380516001836020036101000a031916815260200191505b509550505050505060405180910390a150505050565b828054600181600116156101000203166002900490600052602060002090601f016020900481019282601f10610f1d57805160ff1916838001178555610f4b565b82800160010185558215610f4b579182015b82811115610f4a578251825591602001919060010190610f2f565b5b509050610f589190610f5c565b5090565b610f7e91905b80821115610f7a576000816000905550600101610f62565b5090565b9056fea165627a7a72305820e1869fa10ad4ccc138bb5e7144e4bdcbb46628bf1a3ed8b7f3644ee2f46ec2770029",
  "source": "    pragma solidity >=0.4.18;\r\n     import \"./Health.sol\";\r\n    contract Doctor{\r\n        struct doctors{\r\n            string fName;\r\n            string lName;\r\n            uint Pid;\r\n            uint age;\r\n            string specialization;\r\n            string DOB;\r\n        }\r\n    \r\n        mapping(uint => doctors) map;\r\n        \r\n        \r\n       event DoctorInfo(\r\n         string fName,\r\n         string lName,\r\n         uint age\r\n         );\r\n         \r\n         event DoctorInfo1(\r\n             string DOB,\r\n             string specialization\r\n             );\r\n         \r\n         function setDoctor(uint _Did,string memory _fName, string memory _lName ,uint _age) public {\r\n           map[_Did].fName = _fName;\r\n           map[_Did].lName = _lName;\r\n           map[_Did].age=_age;\r\n         \r\n          \r\n          emit DoctorInfo(_fName,_lName,_age);\r\n            }\r\n            \r\n            function setDoctor1(uint _Did,string memory _DOB, string memory _specialization) public {\r\n           map[_Did].DOB = _DOB;\r\n           map[_Did].specialization = _specialization;\r\n          \r\n          emit DoctorInfo1(_DOB,_specialization);\r\n            }\r\n            \r\n             function getDoctor(uint _Did) view public returns (string memory ,string memory , uint,string memory,string memory,uint) {\r\n           return (map[_Did].fName, map[_Did].lName,map[_Did].age,map[_Did].DOB,map[_Did].specialization,map[_Did].Pid);\r\n       }\r\n       \r\n       \r\n       function setPid(uint _Did, uint _Pid)public {\r\n           map[_Did].Pid = _Pid;\r\n       }\r\n       \r\n       function view_patient(address _addrPatient,uint _Did,uint _Pid)public view  returns(string memory ,string memory ,string memory, uint, uint){\r\n           Health A = Health(_addrPatient);\r\n           return A.doctor_view(_Did,_Pid);\r\n       }\r\n    }\r\n    \r\n    contract Hospital is Doctor{\r\n          uint[] public patients_list;\r\n          uint[] public doctors_list;\r\n          \r\n          function add_doctor(uint _did)public{\r\n              doctors_list.push(_did);\r\n          }\r\n          \r\n           function get_did()view public returns(uint[] memory){\r\n              return doctors_list;\r\n          }\r\n          \r\n          function add_patient(uint _pid)public{\r\n              patients_list.push(_pid);\r\n          }\r\n          \r\n          function request_list()view public returns(uint[] memory){\r\n              return patients_list;\r\n          }\r\n          \r\n          function setPid_and_Did(address _addrPatient, uint _Pid, uint _Did)public{\r\n              Health patient = Health(_addrPatient);\r\n              Doctor.setPid(_Did,_Pid);\r\n              patient.setDid(_Pid,_Did);\r\n          }\r\n          \r\n          function remove_Pid(uint _Pid)public{\r\n              for(uint i=0;i<patients_list.length;i++){\r\n             if(_Pid==patients_list[i])\r\n             {\r\n                 for(uint j = i;j<patients_list.length-1;j++)\r\n                 {\r\n                     patients_list[j] = patients_list[j+1];\r\n                 }\r\n                delete patients_list[patients_list.length-1];\r\n                patients_list.length--;\r\n             }\r\n         }\r\n          }\r\n          \r\n          \r\n    }",
  "sourcePath": "C:\\Users\\HP\\demo2\\contracts\\Hospital.sol",
  "compiler": {
    "name": "solc",
    "version": "0.5.8+commit.23d335f2.Emscripten.clang"
  },
  "schemaVersion": "3.0.10",
  "updatedAt": "2019-07-12T06:41:36.303Z",
  "devdoc": {
    "methods": {}
  },
  "userdoc": {
    "methods": {}
  }
}