{
  "contractName": "Health",
  "abi": [
    {
      "anonymous": false,
      "inputs": [
        {
          "indexed": false,
          "name": "fName",
          "type": "string"
        },
        {
          "indexed": false,
          "name": "lName",
          "type": "string"
        },
        {
          "indexed": false,
          "name": "age",
          "type": "uint256"
        }
      ],
      "name": "PatientInfo",
      "type": "event"
    },
    {
      "anonymous": false,
      "inputs": [
        {
          "indexed": false,
          "name": "Dob",
          "type": "string"
        }
      ],
      "name": "PatientInfo1",
      "type": "event"
    },
    {
      "constant": false,
      "inputs": [
        {
          "name": "_Pid",
          "type": "uint256"
        },
        {
          "name": "_fName",
          "type": "string"
        },
        {
          "name": "_lName",
          "type": "string"
        },
        {
          "name": "_age",
          "type": "uint256"
        }
      ],
      "name": "setPatient",
      "outputs": [],
      "payable": false,
      "stateMutability": "nonpayable",
      "type": "function"
    },
    {
      "constant": false,
      "inputs": [
        {
          "name": "_Pid",
          "type": "uint256"
        },
        {
          "name": "_Dob",
          "type": "string"
        }
      ],
      "name": "setPatient1",
      "outputs": [],
      "payable": false,
      "stateMutability": "nonpayable",
      "type": "function"
    },
    {
      "constant": true,
      "inputs": [
        {
          "name": "_Pid",
          "type": "uint256"
        }
      ],
      "name": "getPatient",
      "outputs": [
        {
          "name": "",
          "type": "string"
        },
        {
          "name": "",
          "type": "string"
        },
        {
          "name": "",
          "type": "string"
        },
        {
          "name": "",
          "type": "uint256"
        },
        {
          "name": "",
          "type": "uint256"
        }
      ],
      "payable": false,
      "stateMutability": "view",
      "type": "function"
    },
    {
      "constant": false,
      "inputs": [
        {
          "name": "_addrHospital",
          "type": "address"
        },
        {
          "name": "_no",
          "type": "uint256"
        }
      ],
      "name": "request_doc",
      "outputs": [],
      "payable": false,
      "stateMutability": "nonpayable",
      "type": "function"
    },
    {
      "constant": false,
      "inputs": [
        {
          "name": "_Pid",
          "type": "uint256"
        },
        {
          "name": "_Did",
          "type": "uint256"
        }
      ],
      "name": "setDid",
      "outputs": [],
      "payable": false,
      "stateMutability": "nonpayable",
      "type": "function"
    },
    {
      "constant": true,
      "inputs": [
        {
          "name": "_Did",
          "type": "uint256"
        },
        {
          "name": "_Pid",
          "type": "uint256"
        }
      ],
      "name": "doctor_view",
      "outputs": [
        {
          "name": "",
          "type": "string"
        },
        {
          "name": "",
          "type": "string"
        },
        {
          "name": "",
          "type": "string"
        },
        {
          "name": "",
          "type": "uint256"
        },
        {
          "name": "",
          "type": "uint256"
        }
      ],
      "payable": false,
      "stateMutability": "view",
      "type": "function"
    }
  ],
  "bytecode": "0x608060405234801561001057600080fd5b50610ec7806100206000396000f3fe608060405234801561001057600080fd5b50600436106100625760003560e01c80630af8835a146100675780635b3414651461009f5780637d3a6796146100ed5780639c3c8c291461027a578063bcdc02331461033f578063e458e06a146104d6575b600080fd5b61009d6004803603604081101561007d57600080fd5b81019080803590602001909291908035906020019092919050505061063c565b005b6100eb600480360360408110156100b557600080fd5b81019080803573ffffffffffffffffffffffffffffffffffffffff1690602001909291908035906020019092919050505061065a565b005b6101196004803603602081101561010357600080fd5b81019080803590602001909291905050506106cf565b60405180806020018060200180602001868152602001858152602001848103845289818151815260200191508051906020019080838360005b8381101561016d578082015181840152602081019050610152565b50505050905090810190601f16801561019a5780820380516001836020036101000a031916815260200191505b50848103835288818151815260200191508051906020019080838360005b838110156101d35780820151818401526020810190506101b8565b50505050905090810190601f1680156102005780820380516001836020036101000a031916815260200191505b50848103825287818151815260200191508051906020019080838360005b8381101561023957808201518184015260208101905061021e565b50505050905090810190601f1680156102665780820380516001836020036101000a031916815260200191505b509850505050505050505060405180910390f35b61033d6004803603604081101561029057600080fd5b8101908080359060200190929190803590602001906401000000008111156102b757600080fd5b8201836020820111156102c957600080fd5b803590602001918460018302840111640100000000831117156102eb57600080fd5b91908080601f016020809104026020016040519081016040528093929190818152602001838380828437600081840152601f19601f820116905080830192505050505050509192919290505050610929565b005b6103756004803603604081101561035557600080fd5b8101908080359060200190929190803590602001909291905050506109f3565b60405180806020018060200180602001868152602001858152602001848103845289818151815260200191508051906020019080838360005b838110156103c95780820151818401526020810190506103ae565b50505050905090810190601f1680156103f65780820380516001836020036101000a031916815260200191505b50848103835288818151815260200191508051906020019080838360005b8381101561042f578082015181840152602081019050610414565b50505050905090810190601f16801561045c5780820380516001836020036101000a031916815260200191505b50848103825287818151815260200191508051906020019080838360005b8381101561049557808201518184015260208101905061047a565b50505050905090810190601f1680156104c25780820380516001836020036101000a031916815260200191505b509850505050505050505060405180910390f35b61063a600480360360808110156104ec57600080fd5b81019080803590602001909291908035906020019064010000000081111561051357600080fd5b82018360208201111561052557600080fd5b8035906020019184600183028401116401000000008311171561054757600080fd5b91908080601f016020809104026020016040519081016040528093929190818152602001838380828437600081840152601f19601f820116905080830192505050505050509192919290803590602001906401000000008111156105aa57600080fd5b8201836020820111156105bc57600080fd5b803590602001918460018302840111640100000000831117156105de57600080fd5b91908080601f016020809104026020016040519081016040528093929190818152602001838380828437600081840152601f19601f82011690508083019250505050505050919291929080359060200190929190505050610c71565b005b80600080848152602001908152602001600020600301819055505050565b60008290508073ffffffffffffffffffffffffffffffffffffffff166304f48179836040518263ffffffff1660e01b815260040180828152602001915050600060405180830381600087803b1580156106b257600080fd5b505af11580156106c6573d6000803e3d6000fd5b50505050505050565b60608060606000806000808781526020019081526020016000206000016000808881526020019081526020016000206001016000808981526020019081526020016000206004016000808a8152602001908152602001600020600201546000808b815260200190815260200160002060030154848054600181600116156101000203166002900480601f0160208091040260200160405190810160405280929190818152602001828054600181600116156101000203166002900480156107d75780601f106107ac576101008083540402835291602001916107d7565b820191906000526020600020905b8154815290600101906020018083116107ba57829003601f168201915b50505050509450838054600181600116156101000203166002900480601f0160208091040260200160405190810160405280929190818152602001828054600181600116156101000203166002900480156108735780601f1061084857610100808354040283529160200191610873565b820191906000526020600020905b81548152906001019060200180831161085657829003601f168201915b50505050509350828054600181600116156101000203166002900480601f01602080910402602001604051908101604052809291908181526020018280546001816001161561010002031660029004801561090f5780601f106108e45761010080835404028352916020019161090f565b820191906000526020600020905b8154815290600101906020018083116108f257829003601f168201915b505050505092509450945094509450945091939590929450565b806000808481526020019081526020016000206004019080519060200190610952929190610df6565b507fab53b1c00c027ee08c2d455418729da18b883ccb3f8f92e947f86df277b326f6816040518080602001828103825283818151815260200191508051906020019080838360005b838110156109b557808201518184015260208101905061099a565b50505050905090810190601f1680156109e25780820380516001836020036101000a031916815260200191505b509250505060405180910390a15050565b606080606060008060008087815260200190815260200160002060030154871415610c66576000808781526020019081526020016000206000016000808881526020019081526020016000206001016000808981526020019081526020016000206004016000808a8152602001908152602001600020600201546000808b815260200190815260200160002060030154848054600181600116156101000203166002900480601f016020809104026020016040519081016040528092919081815260200182805460018160011615610100020316600290048015610b185780601f10610aed57610100808354040283529160200191610b18565b820191906000526020600020905b815481529060010190602001808311610afb57829003601f168201915b50505050509450838054600181600116156101000203166002900480601f016020809104026020016040519081016040528092919081815260200182805460018160011615610100020316600290048015610bb45780601f10610b8957610100808354040283529160200191610bb4565b820191906000526020600020905b815481529060010190602001808311610b9757829003601f168201915b50505050509350828054600181600116156101000203166002900480601f016020809104026020016040519081016040528092919081815260200182805460018160011615610100020316600290048015610c505780601f10610c2557610100808354040283529160200191610c50565b820191906000526020600020905b815481529060010190602001808311610c3357829003601f168201915b5050505050925094509450945094509450610c67565b5b9295509295909350565b826000808681526020019081526020016000206000019080519060200190610c9a929190610df6565b50816000808681526020019081526020016000206001019080519060200190610cc4929190610df6565b5080600080868152602001908152602001600020600201819055507feeb0226f392846a3219f1dd1eb58cdf559b31eab011636b96039c4d6f55c5876838383604051808060200180602001848152602001838103835286818151815260200191508051906020019080838360005b83811015610d4d578082015181840152602081019050610d32565b50505050905090810190601f168015610d7a5780820380516001836020036101000a031916815260200191505b50838103825285818151815260200191508051906020019080838360005b83811015610db3578082015181840152602081019050610d98565b50505050905090810190601f168015610de05780820380516001836020036101000a031916815260200191505b509550505050505060405180910390a150505050565b828054600181600116156101000203166002900490600052602060002090601f016020900481019282601f10610e3757805160ff1916838001178555610e65565b82800160010185558215610e65579182015b82811115610e64578251825591602001919060010190610e49565b5b509050610e729190610e76565b5090565b610e9891905b80821115610e94576000816000905550600101610e7c565b5090565b9056fea165627a7a723058201ba9befbbe0ba908187e1ee4db929b90953e1ff60ba99ca3de64a1be1ed1ae320029",
  "source": "    pragma solidity >=0.4.18;\r\n    import \"./Hospital.sol\";\r\n    contract Health {\r\n        struct Patient{\r\n       string fName;\r\n       string lName;\r\n       uint age;\r\n       uint Doctor_assigned;\r\n       string Dob;\r\n        }\r\n        \r\n        mapping (uint => Patient) map;\r\n    \r\n       event PatientInfo(\r\n         string fName,\r\n         string lName,\r\n         uint age\r\n         );\r\n     \r\n        event PatientInfo1(\r\n            /*uint Doctor_assigned,*/\r\n       string Dob\r\n            );\r\n           \r\n    function setPatient(uint _Pid,string memory _fName, string memory _lName,uint _age) public {\r\n           map[_Pid].fName = _fName;\r\n           map[_Pid].lName = _lName;\r\n           map[_Pid].age = _age;\r\n          \r\n          emit PatientInfo(_fName,_lName,_age);\r\n            }\r\n            \r\n    function setPatient1(uint _Pid,string memory _Dob/*,uint _Doctor_assigned*/) public{\r\n            map[_Pid].Dob = _Dob;\r\n           \r\n          /*map[_Pid].Doctor_assigned = _Doctor_assigned;*/\r\n            emit PatientInfo1(_Dob/*,_Doctor_assigned*/);\r\n         \r\n    }\r\n    \r\n       function getPatient(uint _Pid) view public returns (string memory ,string memory ,string memory, uint, uint) {\r\n           return (map[_Pid].fName, map[_Pid].lName, map[_Pid].Dob, map[_Pid].age, map[_Pid].Doctor_assigned);\r\n       }\r\n       \r\n       function request_doc(address _addrHospital,uint _no)public {\r\n           Hospital H = Hospital(_addrHospital);\r\n            H.add_patient(_no);\r\n       }\r\n       \r\n       function setDid(uint _Pid, uint _Did)public{\r\n           map[_Pid].Doctor_assigned = _Did;\r\n       }\r\n\r\n       function doctor_view(uint _Did, uint _Pid) public view returns(string memory ,string memory ,string memory, uint, uint){\r\n          if(_Did==map[_Pid].Doctor_assigned) \r\n          {\r\n              return(map[_Pid].fName, map[_Pid].lName, map[_Pid].Dob, map[_Pid].age, map[_Pid].Doctor_assigned);\r\n          }\r\n      }\r\n      \r\n    }\r\n    ",
  "sourcePath": "C:\\Users\\HP\\demo2\\contracts\\Health.sol",
  "compiler": {
    "name": "solc",
    "version": "0.5.8+commit.23d335f2.Emscripten.clang"
  },
  "schemaVersion": "3.0.10",
  "updatedAt": "2019-07-12T06:41:38.721Z",
  "devdoc": {
    "methods": {}
  },
  "userdoc": {
    "methods": {}
  }
}