{
  "contractName": "Hospital",
  "abi": [
    {
      "constant": false,
      "inputs": [
        {
          "name": "_Did",
          "type": "uint256"
        },
        {
          "name": "_Pid",
          "type": "uint256"
        }
      ],
      "name": "setPid",
      "outputs": [],
      "payable": false,
      "stateMutability": "nonpayable",
      "type": "function"
    },
    {
      "constant": false,
      "inputs": [
        {
          "name": "_Did",
          "type": "uint256"
        },
        {
          "name": "_DOB",
          "type": "string"
        },
        {
          "name": "_specialization",
          "type": "string"
        }
      ],
      "name": "setDoctor1",
      "outputs": [],
      "payable": false,
      "stateMutability": "nonpayable",
      "type": "function"
    },
    {
      "constant": true,
      "inputs": [
        {
          "name": "_addrPatient",
          "type": "address"
        },
        {
          "name": "_Did",
          "type": "uint256"
        },
        {
          "name": "_Pid",
          "type": "uint256"
        }
      ],
      "name": "view_patient",
      "outputs": [
        {
          "name": "",
          "type": "string"
        },
        {
          "name": "",
          "type": "string"
        },
        {
          "name": "",
          "type": "string"
        },
        {
          "name": "",
          "type": "uint256"
        },
        {
          "name": "",
          "type": "uint256"
        }
      ],
      "payable": false,
      "stateMutability": "view",
      "type": "function"
    },
    {
      "constant": true,
      "inputs": [
        {
          "name": "",
          "type": "uint256"
        }
      ],
      "name": "doctors_list",
      "outputs": [
        {
          "name": "",
          "type": "uint256"
        }
      ],
      "payable": false,
      "stateMutability": "view",
      "type": "function"
    },
    {
      "constant": true,
      "inputs": [
        {
          "name": "_Did",
          "type": "uint256"
        }
      ],
      "name": "getDoctor",
      "outputs": [
        {
          "name": "",
          "type": "string"
        },
        {
          "name": "",
          "type": "string"
        },
        {
          "name": "",
          "type": "uint256"
        },
        {
          "name": "",
          "type": "string"
        },
        {
          "name": "",
          "type": "string"
        },
        {
          "name": "",
          "type": "uint256"
        }
      ],
      "payable": false,
      "stateMutability": "view",
      "type": "function"
    },
    {
      "constant": true,
      "inputs": [
        {
          "name": "",
          "type": "uint256"
        }
      ],
      "name": "patients_list",
      "outputs": [
        {
          "name": "",
          "type": "uint256"
        }
      ],
      "payable": false,
      "stateMutability": "view",
      "type": "function"
    },
    {
      "constant": false,
      "inputs": [
        {
          "name": "_Did",
          "type": "uint256"
        },
        {
          "name": "_fName",
          "type": "string"
        },
        {
          "name": "_lName",
          "type": "string"
        },
        {
          "name": "_age",
          "type": "uint256"
        }
      ],
      "name": "setDoctor",
      "outputs": [],
      "payable": false,
      "stateMutability": "nonpayable",
      "type": "function"
    },
    {
      "anonymous": false,
      "inputs": [
        {
          "indexed": false,
          "name": "fName",
          "type": "string"
        },
        {
          "indexed": false,
          "name": "lName",
          "type": "string"
        },
        {
          "indexed": false,
          "name": "age",
          "type": "uint256"
        }
      ],
      "name": "DoctorInfo",
      "type": "event"
    },
    {
      "anonymous": false,
      "inputs": [
        {
          "indexed": false,
          "name": "DOB",
          "type": "string"
        },
        {
          "indexed": false,
          "name": "specialization",
          "type": "string"
        }
      ],
      "name": "DoctorInfo1",
      "type": "event"
    },
    {
      "constant": false,
      "inputs": [
        {
          "name": "_did",
          "type": "uint256"
        }
      ],
      "name": "add_doctor",
      "outputs": [],
      "payable": false,
      "stateMutability": "nonpayable",
      "type": "function"
    },
    {
      "constant": true,
      "inputs": [],
      "name": "get_did",
      "outputs": [
        {
          "name": "",
          "type": "uint256[]"
        }
      ],
      "payable": false,
      "stateMutability": "view",
      "type": "function"
    },
    {
      "constant": false,
      "inputs": [
        {
          "name": "_pid",
          "type": "uint256"
        }
      ],
      "name": "add_patient",
      "outputs": [],
      "payable": false,
      "stateMutability": "nonpayable",
      "type": "function"
    },
    {
      "constant": true,
      "inputs": [],
      "name": "request_list",
      "outputs": [
        {
          "name": "",
          "type": "uint256[]"
        }
      ],
      "payable": false,
      "stateMutability": "view",
      "type": "function"
    },
    {
      "constant": false,
      "inputs": [
        {
          "name": "_addrPatient",
          "type": "address"
        },
        {
          "name": "_Pid",
          "type": "uint256"
        },
        {
          "name": "_Did",
          "type": "uint256"
        }
      ],
      "name": "setPid_and_Did",
      "outputs": [],
      "payable": false,
      "stateMutability": "nonpayable",
      "type": "function"
    },
    {
      "constant": false,
      "inputs": [
        {
          "name": "_Pid",
          "type": "uint256"
        }
      ],
      "name": "remove_Pid",
      "outputs": [],
      "payable": false,
      "stateMutability": "nonpayable",
      "type": "function"
    }
  ],
  "bytecode": "0x608060405234801561001057600080fd5b50611520806100206000396000f3fe608060405234801561001057600080fd5b50600436106100cf5760003560e01c806343bc315d1161008c57806370716f7f1161006657806370716f7f14610743578063b4505b2c1461079b578063ce559700146107dd578063dedfa9a61461083c576100cf565b806343bc315d146104bd5780635d84a3c51461051c57806369b0a72d1461054a576100cf565b80630184a0e6146100d457806304f481791461010c5780630519fbb41461013a57806307a5926c1461029657806322304ba51461044d57806342383fe41461047b575b600080fd5b61010a600480360360408110156100ea57600080fd5b8101908080359060200190929190803590602001909291905050506109a2565b005b6101386004803603602081101561012257600080fd5b81019080803590602001909291905050506109c0565b005b6102946004803603606081101561015057600080fd5b81019080803590602001909291908035906020019064010000000081111561017757600080fd5b82018360208201111561018957600080fd5b803590602001918460018302840111640100000000831117156101ab57600080fd5b91908080601f016020809104026020016040519081016040528093929190818152602001838380828437600081840152601f19601f8201169050808301925050505050505091929192908035906020019064010000000081111561020e57600080fd5b82018360208201111561022057600080fd5b8035906020019184600183028401116401000000008311171561024257600080fd5b91908080601f016020809104026020016040519081016040528093929190818152602001838380828437600081840152601f19601f8201169050808301925050505050505091929192905050506109ef565b005b6102ec600480360360608110156102ac57600080fd5b81019080803573ffffffffffffffffffffffffffffffffffffffff1690602001909291908035906020019092919080359060200190929190505050610b51565b60405180806020018060200180602001868152602001858152602001848103845289818151815260200191508051906020019080838360005b83811015610340578082015181840152602081019050610325565b50505050905090810190601f16801561036d5780820380516001836020036101000a031916815260200191505b50848103835288818151815260200191508051906020019080838360005b838110156103a657808201518184015260208101905061038b565b50505050905090810190601f1680156103d35780820380516001836020036101000a031916815260200191505b50848103825287818151815260200191508051906020019080838360005b8381101561040c5780820151818401526020810190506103f1565b50505050905090810190601f1680156104395780820380516001836020036101000a031916815260200191505b509850505050505050505060405180910390f35b6104796004803603602081101561046357600080fd5b8101908080359060200190929190505050610d13565b005b6104a76004803603602081101561049157600080fd5b8101908080359060200190929190505050610de6565b6040518082815260200191505060405180910390f35b6104c5610e07565b6040518080602001828103825283818151815260200191508051906020019060200280838360005b838110156105085780820151818401526020810190506104ed565b505050509050019250505060405180910390f35b6105486004803603602081101561053257600080fd5b8101908080359060200190929190505050610e5f565b005b6105766004803603602081101561056057600080fd5b8101908080359060200190929190505050610e8e565b604051808060200180602001878152602001806020018060200186815260200185810385528b818151815260200191508051906020019080838360005b838110156105ce5780820151818401526020810190506105b3565b50505050905090810190601f1680156105fb5780820380516001836020036101000a031916815260200191505b5085810384528a818151815260200191508051906020019080838360005b83811015610634578082015181840152602081019050610619565b50505050905090810190601f1680156106615780820380516001836020036101000a031916815260200191505b50858103835288818151815260200191508051906020019080838360005b8381101561069a57808201518184015260208101905061067f565b50505050905090810190601f1680156106c75780820380516001836020036101000a031916815260200191505b50858103825287818151815260200191508051906020019080838360005b838110156107005780820151818401526020810190506106e5565b50505050905090810190601f16801561072d5780820380516001836020036101000a031916815260200191505b509a505050505050505050505060405180910390f35b6107996004803603606081101561075957600080fd5b81019080803573ffffffffffffffffffffffffffffffffffffffff169060200190929190803590602001909291908035906020019092919050505061119d565b005b6107c7600480360360208110156107b157600080fd5b8101908080359060200190929190505050611225565b6040518082815260200191505060405180910390f35b6107e5611246565b6040518080602001828103825283818151815260200191508051906020019060200280838360005b8381101561082857808201518184015260208101905061080d565b505050509050019250505060405180910390f35b6109a06004803603608081101561085257600080fd5b81019080803590602001909291908035906020019064010000000081111561087957600080fd5b82018360208201111561088b57600080fd5b803590602001918460018302840111640100000000831117156108ad57600080fd5b91908080601f016020809104026020016040519081016040528093929190818152602001838380828437600081840152601f19601f8201169050808301925050505050505091929192908035906020019064010000000081111561091057600080fd5b82018360208201111561092257600080fd5b8035906020019184600183028401116401000000008311171561094457600080fd5b91908080601f016020809104026020016040519081016040528093929190818152602001838380828437600081840152601f19601f8201169050808301925050505050505091929192908035906020019092919050505061129e565b005b80600080848152602001908152602001600020600201819055505050565b600181908060018154018082558091505090600182039060005260206000200160009091929091909150555050565b816000808581526020019081526020016000206005019080519060200190610a18929190611423565b50806000808581526020019081526020016000206004019080519060200190610a42929190611423565b507f01b20a45137da8481875b77161a5fb3d4db6ae802739b5125f5b86ab8df40c688282604051808060200180602001838103835285818151815260200191508051906020019080838360005b83811015610aaa578082015181840152602081019050610a8f565b50505050905090810190601f168015610ad75780820380516001836020036101000a031916815260200191505b50838103825284818151815260200191508051906020019080838360005b83811015610b10578082015181840152602081019050610af5565b50505050905090810190601f168015610b3d5780820380516001836020036101000a031916815260200191505b5094505050505060405180910390a1505050565b606080606060008060008890508073ffffffffffffffffffffffffffffffffffffffff1663bcdc023389896040518363ffffffff1660e01b8152600401808381526020018281526020019250505060006040518083038186803b158015610bb757600080fd5b505afa158015610bcb573d6000803e3d6000fd5b505050506040513d6000823e3d601f19601f8201168201806040525060a0811015610bf557600080fd5b810190808051640100000000811115610c0d57600080fd5b82810190506020810184811115610c2357600080fd5b8151856001820283011164010000000082111715610c4057600080fd5b50509291906020018051640100000000811115610c5c57600080fd5b82810190506020810184811115610c7257600080fd5b8151856001820283011164010000000082111715610c8f57600080fd5b50509291906020018051640100000000811115610cab57600080fd5b82810190506020810184811115610cc157600080fd5b8151856001820283011164010000000082111715610cde57600080fd5b505092919060200180519060200190929190805190602001909291905050509550955095509550955050939792965093509350565b60008090505b600180549050811015610de25760018181548110610d3357fe5b9060005260206000200154821415610dd55760008190505b6001808054905003811015610d9c57600180820181548110610d6957fe5b906000526020600020015460018281548110610d8157fe5b90600052602060002001819055508080600101915050610d4b565b5060018080805490500381548110610db057fe5b90600052602060002001600090556001805480919060019003610dd391906114a3565b505b8080600101915050610d19565b5050565b60028181548110610df357fe5b906000526020600020016000915090505481565b60606001805480602002602001604051908101604052809291908181526020018280548015610e5557602002820191906000526020600020905b815481526020019060010190808311610e41575b5050505050905090565b600281908060018154018082558091505090600182039060005260206000200160009091929091909150555050565b606080600060608060008060008881526020019081526020016000206000016000808981526020019081526020016000206001016000808a8152602001908152602001600020600301546000808b81526020019081526020016000206005016000808c81526020019081526020016000206004016000808d815260200190815260200160002060020154858054600181600116156101000203166002900480601f016020809104026020016040519081016040528092919081815260200182805460018160011615610100020316600290048015610fad5780601f10610f8257610100808354040283529160200191610fad565b820191906000526020600020905b815481529060010190602001808311610f9057829003601f168201915b50505050509550848054600181600116156101000203166002900480601f0160208091040260200160405190810160405280929190818152602001828054600181600116156101000203166002900480156110495780601f1061101e57610100808354040283529160200191611049565b820191906000526020600020905b81548152906001019060200180831161102c57829003601f168201915b50505050509450828054600181600116156101000203166002900480601f0160208091040260200160405190810160405280929190818152602001828054600181600116156101000203166002900480156110e55780601f106110ba576101008083540402835291602001916110e5565b820191906000526020600020905b8154815290600101906020018083116110c857829003601f168201915b50505050509250818054600181600116156101000203166002900480601f0160208091040260200160405190810160405280929190818152602001828054600181600116156101000203166002900480156111815780601f1061115657610100808354040283529160200191611181565b820191906000526020600020905b81548152906001019060200180831161116457829003601f168201915b5050505050915095509550955095509550955091939550919395565b60008390506111ac82846109a2565b8073ffffffffffffffffffffffffffffffffffffffff16630af8835a84846040518363ffffffff1660e01b81526004018083815260200182815260200192505050600060405180830381600087803b15801561120757600080fd5b505af115801561121b573d6000803e3d6000fd5b5050505050505050565b6001818154811061123257fe5b906000526020600020016000915090505481565b6060600280548060200260200160405190810160405280929190818152602001828054801561129457602002820191906000526020600020905b815481526020019060010190808311611280575b5050505050905090565b8260008086815260200190815260200160002060000190805190602001906112c7929190611423565b508160008086815260200190815260200160002060010190805190602001906112f1929190611423565b5080600080868152602001908152602001600020600301819055507fc5f0be3a69b6bd1b125dbd40bbc292c70bfd050b726312b66c5f3993d69b0184838383604051808060200180602001848152602001838103835286818151815260200191508051906020019080838360005b8381101561137a57808201518184015260208101905061135f565b50505050905090810190601f1680156113a75780820380516001836020036101000a031916815260200191505b50838103825285818151815260200191508051906020019080838360005b838110156113e05780820151818401526020810190506113c5565b50505050905090810190601f16801561140d5780820380516001836020036101000a031916815260200191505b509550505050505060405180910390a150505050565b828054600181600116156101000203166002900490600052602060002090601f016020900481019282601f1061146457805160ff1916838001178555611492565b82800160010185558215611492579182015b82811115611491578251825591602001919060010190611476565b5b50905061149f91906114cf565b5090565b8154818355818111156114ca578183600052602060002091820191016114c991906114cf565b5b505050565b6114f191905b808211156114ed5760008160009055506001016114d5565b5090565b9056fea165627a7a7230582000a22c8155e9c52be9e59eb542bc97920f56f2f9f0d90f07e86cf90d83f36d330029",
  "source": "    pragma solidity >=0.4.18;\r\n     import \"./Health.sol\";\r\n    contract Doctor{\r\n        struct doctors{\r\n            string fName;\r\n            string lName;\r\n            uint Pid;\r\n            uint age;\r\n            string specialization;\r\n            string DOB;\r\n        }\r\n    \r\n        mapping(uint => doctors) map;\r\n        \r\n        \r\n       event DoctorInfo(\r\n         string fName,\r\n         string lName,\r\n         uint age\r\n         );\r\n         \r\n         event DoctorInfo1(\r\n             string DOB,\r\n             string specialization\r\n             );\r\n         \r\n         function setDoctor(uint _Did,string memory _fName, string memory _lName ,uint _age) public {\r\n           map[_Did].fName = _fName;\r\n           map[_Did].lName = _lName;\r\n           map[_Did].age=_age;\r\n         \r\n          \r\n          emit DoctorInfo(_fName,_lName,_age);\r\n            }\r\n            \r\n            function setDoctor1(uint _Did,string memory _DOB, string memory _specialization) public {\r\n           map[_Did].DOB = _DOB;\r\n           map[_Did].specialization = _specialization;\r\n          \r\n          emit DoctorInfo1(_DOB,_specialization);\r\n            }\r\n            \r\n             function getDoctor(uint _Did) view public returns (string memory ,string memory , uint,string memory,string memory,uint) {\r\n           return (map[_Did].fName, map[_Did].lName,map[_Did].age,map[_Did].DOB,map[_Did].specialization,map[_Did].Pid);\r\n       }\r\n       \r\n       \r\n       function setPid(uint _Did, uint _Pid)public {\r\n           map[_Did].Pid = _Pid;\r\n       }\r\n       \r\n       function view_patient(address _addrPatient,uint _Did,uint _Pid)public view  returns(string memory ,string memory ,string memory, uint, uint){\r\n           Health A = Health(_addrPatient);\r\n           return A.doctor_view(_Did,_Pid);\r\n       }\r\n    }\r\n    \r\n    contract Hospital is Doctor{\r\n          uint[] public patients_list;\r\n          uint[] public doctors_list;\r\n          \r\n          function add_doctor(uint _did)public{\r\n              doctors_list.push(_did);\r\n          }\r\n          \r\n           function get_did()view public returns(uint[] memory){\r\n              return doctors_list;\r\n          }\r\n          \r\n          function add_patient(uint _pid)public{\r\n              patients_list.push(_pid);\r\n          }\r\n          \r\n          function request_list()view public returns(uint[] memory){\r\n              return patients_list;\r\n          }\r\n          \r\n          function setPid_and_Did(address _addrPatient, uint _Pid, uint _Did)public{\r\n              Health patient = Health(_addrPatient);\r\n              Doctor.setPid(_Did,_Pid);\r\n              patient.setDid(_Pid,_Did);\r\n          }\r\n          \r\n          function remove_Pid(uint _Pid)public{\r\n              for(uint i=0;i<patients_list.length;i++){\r\n             if(_Pid==patients_list[i])\r\n             {\r\n                 for(uint j = i;j<patients_list.length-1;j++)\r\n                 {\r\n                     patients_list[j] = patients_list[j+1];\r\n                 }\r\n                delete patients_list[patients_list.length-1];\r\n                patients_list.length--;\r\n             }\r\n         }\r\n          }\r\n          \r\n          \r\n    }",
  "sourcePath": "C:\\Users\\HP\\demo2\\contracts\\Hospital.sol",
  "compiler": {
    "name": "solc",
    "version": "0.5.8+commit.23d335f2.Emscripten.clang"
  },
  "schemaVersion": "3.0.10",
  "updatedAt": "2019-07-16T08:59:26.957Z",
  "devdoc": {
    "methods": {}
  },
  "userdoc": {
    "methods": {}
  }
}