{
  "contractName": "Hospital",
  "abi": [
    {
      "constant": false,
      "inputs": [
        {
          "name": "_Did",
          "type": "uint256"
        },
        {
          "name": "_Pid",
          "type": "uint256"
        }
      ],
      "name": "setPid",
      "outputs": [],
      "payable": false,
      "stateMutability": "nonpayable",
      "type": "function"
    },
    {
      "constant": true,
      "inputs": [
        {
          "name": "_addrPatient",
          "type": "address"
        },
        {
          "name": "_Did",
          "type": "uint256"
        },
        {
          "name": "_Pid",
          "type": "uint256"
        }
      ],
      "name": "view_patient",
      "outputs": [
        {
          "name": "",
          "type": "string"
        },
        {
          "name": "",
          "type": "string"
        },
        {
          "name": "",
          "type": "string"
        },
        {
          "name": "",
          "type": "uint256"
        },
        {
          "name": "",
          "type": "uint256"
        }
      ],
      "payable": false,
      "stateMutability": "view",
      "type": "function"
    },
    {
      "constant": true,
      "inputs": [
        {
          "name": "",
          "type": "uint256"
        }
      ],
      "name": "doctors_list",
      "outputs": [
        {
          "name": "",
          "type": "uint256"
        }
      ],
      "payable": false,
      "stateMutability": "view",
      "type": "function"
    },
    {
      "constant": true,
      "inputs": [
        {
          "name": "_Did",
          "type": "uint256"
        }
      ],
      "name": "getDoctor",
      "outputs": [
        {
          "name": "",
          "type": "string"
        },
        {
          "name": "",
          "type": "string"
        },
        {
          "name": "",
          "type": "uint256"
        }
      ],
      "payable": false,
      "stateMutability": "view",
      "type": "function"
    },
    {
      "constant": false,
      "inputs": [
        {
          "name": "_Did",
          "type": "uint256"
        },
        {
          "name": "_fName",
          "type": "string"
        },
        {
          "name": "_lName",
          "type": "string"
        }
      ],
      "name": "setDoctor",
      "outputs": [],
      "payable": false,
      "stateMutability": "nonpayable",
      "type": "function"
    },
    {
      "constant": true,
      "inputs": [
        {
          "name": "",
          "type": "uint256"
        }
      ],
      "name": "patients_list",
      "outputs": [
        {
          "name": "",
          "type": "uint256"
        }
      ],
      "payable": false,
      "stateMutability": "view",
      "type": "function"
    },
    {
      "anonymous": false,
      "inputs": [
        {
          "indexed": false,
          "name": "fName",
          "type": "string"
        },
        {
          "indexed": false,
          "name": "lName",
          "type": "string"
        }
      ],
      "name": "DoctorInfo",
      "type": "event"
    },
    {
      "constant": false,
      "inputs": [
        {
          "name": "_did",
          "type": "uint256"
        }
      ],
      "name": "add_doctor",
      "outputs": [],
      "payable": false,
      "stateMutability": "nonpayable",
      "type": "function"
    },
    {
      "constant": true,
      "inputs": [],
      "name": "get_did",
      "outputs": [
        {
          "name": "",
          "type": "uint256[]"
        }
      ],
      "payable": false,
      "stateMutability": "view",
      "type": "function"
    },
    {
      "constant": false,
      "inputs": [
        {
          "name": "_pid",
          "type": "uint256"
        }
      ],
      "name": "add_patient",
      "outputs": [],
      "payable": false,
      "stateMutability": "nonpayable",
      "type": "function"
    },
    {
      "constant": true,
      "inputs": [],
      "name": "request_list",
      "outputs": [
        {
          "name": "",
          "type": "uint256[]"
        }
      ],
      "payable": false,
      "stateMutability": "view",
      "type": "function"
    },
    {
      "constant": false,
      "inputs": [
        {
          "name": "_addrPatient",
          "type": "address"
        },
        {
          "name": "_Pid",
          "type": "uint256"
        },
        {
          "name": "_Did",
          "type": "uint256"
        }
      ],
      "name": "setPid_and_Did",
      "outputs": [],
      "payable": false,
      "stateMutability": "nonpayable",
      "type": "function"
    },
    {
      "constant": false,
      "inputs": [
        {
          "name": "_Pid",
          "type": "uint256"
        }
      ],
      "name": "remove_Pid",
      "outputs": [],
      "payable": false,
      "stateMutability": "nonpayable",
      "type": "function"
    }
  ],
  "bytecode": "0x608060405234801561001057600080fd5b50610fb6806100206000396000f3fe608060405234801561001057600080fd5b50600436106100b45760003560e01c80635d84a3c5116100715780635d84a3c5146103a557806369b0a72d146103d357806370716f7f146104ed578063944023c614610545578063b4505b2c146106a1578063ce559700146106e3576100b4565b80630184a0e6146100b957806304f48179146100f157806307a5926c1461011f57806322304ba5146102d657806342383fe41461030457806343bc315d14610346575b600080fd5b6100ef600480360360408110156100cf57600080fd5b810190808035906020019092919080359060200190929190505050610742565b005b61011d6004803603602081101561010757600080fd5b8101908080359060200190929190505050610760565b005b6101756004803603606081101561013557600080fd5b81019080803573ffffffffffffffffffffffffffffffffffffffff169060200190929190803590602001909291908035906020019092919050505061078f565b60405180806020018060200180602001868152602001858152602001848103845289818151815260200191508051906020019080838360005b838110156101c95780820151818401526020810190506101ae565b50505050905090810190601f1680156101f65780820380516001836020036101000a031916815260200191505b50848103835288818151815260200191508051906020019080838360005b8381101561022f578082015181840152602081019050610214565b50505050905090810190601f16801561025c5780820380516001836020036101000a031916815260200191505b50848103825287818151815260200191508051906020019080838360005b8381101561029557808201518184015260208101905061027a565b50505050905090810190601f1680156102c25780820380516001836020036101000a031916815260200191505b509850505050505050505060405180910390f35b610302600480360360208110156102ec57600080fd5b8101908080359060200190929190505050610951565b005b6103306004803603602081101561031a57600080fd5b8101908080359060200190929190505050610a24565b6040518082815260200191505060405180910390f35b61034e610a45565b6040518080602001828103825283818151815260200191508051906020019060200280838360005b83811015610391578082015181840152602081019050610376565b505050509050019250505060405180910390f35b6103d1600480360360208110156103bb57600080fd5b8101908080359060200190929190505050610a9d565b005b6103ff600480360360208110156103e957600080fd5b8101908080359060200190929190505050610acc565b604051808060200180602001848152602001838103835286818151815260200191508051906020019080838360005b8381101561044957808201518184015260208101905061042e565b50505050905090810190601f1680156104765780820380516001836020036101000a031916815260200191505b50838103825285818151815260200191508051906020019080838360005b838110156104af578082015181840152602081019050610494565b50505050905090810190601f1680156104dc5780820380516001836020036101000a031916815260200191505b509550505050505060405180910390f35b6105436004803603606081101561050357600080fd5b81019080803573ffffffffffffffffffffffffffffffffffffffff1690602001909291908035906020019092919080359060200190929190505050610c56565b005b61069f6004803603606081101561055b57600080fd5b81019080803590602001909291908035906020019064010000000081111561058257600080fd5b82018360208201111561059457600080fd5b803590602001918460018302840111640100000000831117156105b657600080fd5b91908080601f016020809104026020016040519081016040528093929190818152602001838380828437600081840152601f19601f8201169050808301925050505050505091929192908035906020019064010000000081111561061957600080fd5b82018360208201111561062b57600080fd5b8035906020019184600183028401116401000000008311171561064d57600080fd5b91908080601f016020809104026020016040519081016040528093929190818152602001838380828437600081840152601f19601f820116905080830192505050505050509192919290505050610cde565b005b6106cd600480360360208110156106b757600080fd5b8101908080359060200190929190505050610e40565b6040518082815260200191505060405180910390f35b6106eb610e61565b6040518080602001828103825283818151815260200191508051906020019060200280838360005b8381101561072e578082015181840152602081019050610713565b505050509050019250505060405180910390f35b80600080848152602001908152602001600020600201819055505050565b600181908060018154018082558091505090600182039060005260206000200160009091929091909150555050565b606080606060008060008890508073ffffffffffffffffffffffffffffffffffffffff1663bcdc023389896040518363ffffffff1660e01b8152600401808381526020018281526020019250505060006040518083038186803b1580156107f557600080fd5b505afa158015610809573d6000803e3d6000fd5b505050506040513d6000823e3d601f19601f8201168201806040525060a081101561083357600080fd5b81019080805164010000000081111561084b57600080fd5b8281019050602081018481111561086157600080fd5b815185600182028301116401000000008211171561087e57600080fd5b5050929190602001805164010000000081111561089a57600080fd5b828101905060208101848111156108b057600080fd5b81518560018202830111640100000000821117156108cd57600080fd5b505092919060200180516401000000008111156108e957600080fd5b828101905060208101848111156108ff57600080fd5b815185600182028301116401000000008211171561091c57600080fd5b505092919060200180519060200190929190805190602001909291905050509550955095509550955050939792965093509350565b60008090505b600180549050811015610a20576001818154811061097157fe5b9060005260206000200154821415610a135760008190505b60018080549050038110156109da576001808201815481106109a757fe5b9060005260206000200154600182815481106109bf57fe5b90600052602060002001819055508080600101915050610989565b50600180808054905003815481106109ee57fe5b90600052602060002001600090556001805480919060019003610a119190610eb9565b505b8080600101915050610957565b5050565b60028181548110610a3157fe5b906000526020600020016000915090505481565b60606001805480602002602001604051908101604052809291908181526020018280548015610a9357602002820191906000526020600020905b815481526020019060010190808311610a7f575b5050505050905090565b600281908060018154018082558091505090600182039060005260206000200160009091929091909150555050565b606080600080600085815260200190815260200160002060000160008086815260200190815260200160002060010160008087815260200190815260200160002060020154828054600181600116156101000203166002900480601f016020809104026020016040519081016040528092919081815260200182805460018160011615610100020316600290048015610ba65780601f10610b7b57610100808354040283529160200191610ba6565b820191906000526020600020905b815481529060010190602001808311610b8957829003601f168201915b50505050509250818054600181600116156101000203166002900480601f016020809104026020016040519081016040528092919081815260200182805460018160011615610100020316600290048015610c425780601f10610c1757610100808354040283529160200191610c42565b820191906000526020600020905b815481529060010190602001808311610c2557829003601f168201915b505050505091509250925092509193909250565b6000839050610c658284610742565b8073ffffffffffffffffffffffffffffffffffffffff16630af8835a84846040518363ffffffff1660e01b81526004018083815260200182815260200192505050600060405180830381600087803b158015610cc057600080fd5b505af1158015610cd4573d6000803e3d6000fd5b5050505050505050565b816000808581526020019081526020016000206000019080519060200190610d07929190610ee5565b50806000808581526020019081526020016000206001019080519060200190610d31929190610ee5565b507f03cd103fc1ac378ae8499352b19cda38006d0e13f2cf486e072871bc8776155d8282604051808060200180602001838103835285818151815260200191508051906020019080838360005b83811015610d99578082015181840152602081019050610d7e565b50505050905090810190601f168015610dc65780820380516001836020036101000a031916815260200191505b50838103825284818151815260200191508051906020019080838360005b83811015610dff578082015181840152602081019050610de4565b50505050905090810190601f168015610e2c5780820380516001836020036101000a031916815260200191505b5094505050505060405180910390a1505050565b60018181548110610e4d57fe5b906000526020600020016000915090505481565b60606002805480602002602001604051908101604052809291908181526020018280548015610eaf57602002820191906000526020600020905b815481526020019060010190808311610e9b575b5050505050905090565b815481835581811115610ee057818360005260206000209182019101610edf9190610f65565b5b505050565b828054600181600116156101000203166002900490600052602060002090601f016020900481019282601f10610f2657805160ff1916838001178555610f54565b82800160010185558215610f54579182015b82811115610f53578251825591602001919060010190610f38565b5b509050610f619190610f65565b5090565b610f8791905b80821115610f83576000816000905550600101610f6b565b5090565b9056fea165627a7a72305820ded3c04f8682fee38bf1c940a74e158ac35e2fd840f08f4adc50fffa1441d4dd0029",
  "source": "    pragma solidity >=0.4.18;\r\n     import \"./Health.sol\";\r\n    contract Doctor{\r\n        struct doctors{\r\n            string fName;\r\n            string lName;\r\n            uint Pid;\r\n        }\r\n    \r\n        mapping(uint => doctors) map;\r\n        \r\n        \r\n       event DoctorInfo(\r\n         string fName,\r\n         string lName\r\n         \r\n         );\r\n         \r\n         function setDoctor(uint _Did,string memory _fName, string memory _lName /*,string memory _Pid*/) public {\r\n           map[_Did].fName = _fName;\r\n           map[_Did].lName = _lName;\r\n         \r\n          \r\n          emit DoctorInfo(_fName,_lName/*,_Pid*/);\r\n            }\r\n            \r\n             function getDoctor(uint _Did) view public returns (string memory ,string memory , uint) {\r\n           return (map[_Did].fName, map[_Did].lName,map[_Did].Pid);\r\n       }\r\n       \r\n       function setPid(uint _Did, uint _Pid)public {\r\n           map[_Did].Pid = _Pid;\r\n       }\r\n\r\n       function view_patient(address _addrPatient,uint _Did,uint _Pid)public view  returns(string memory ,string memory ,string memory, uint, uint){\r\n           Health A = Health(_addrPatient);\r\n           return A.doctor_view(_Did,_Pid);\r\n       }\r\n    }\r\n    \r\n    contract Hospital is Doctor{\r\n          uint[] public patients_list;\r\n          uint[] public doctors_list;\r\n          \r\n          function add_doctor(uint _did)public{\r\n              doctors_list.push(_did);\r\n          }\r\n          \r\n           function get_did()public view  returns(uint[] memory){\r\n              return doctors_list;\r\n          }\r\n          \r\n          function add_patient(uint _pid)public{\r\n              patients_list.push(_pid);\r\n          }\r\n          \r\n          function request_list()public view  returns(uint[] memory){\r\n              return patients_list;\r\n          }\r\n          \r\n          function setPid_and_Did(address _addrPatient, uint _Pid, uint _Did)public{\r\n              Health patient = Health(_addrPatient);\r\n              Doctor.setPid(_Did,_Pid);\r\n              patient.setDid(_Pid,_Did);\r\n              \r\n          }\r\n\r\n           function remove_Pid(uint _Pid)public{\r\n              for(uint i=0;i<patients_list.length;i++){\r\n             if(_Pid==patients_list[i])\r\n             {\r\n                 for(uint j = i;j<patients_list.length-1;j++)\r\n                 {\r\n                     patients_list[j] = patients_list[j+1];\r\n                 }\r\n                delete patients_list[patients_list.length-1];\r\n                patients_list.length--;\r\n             }\r\n         }\r\n          }\r\n          \r\n          \r\n    }",
  "sourcePath": "C:\\Users\\HP\\demo2\\contracts\\Hospital.sol",
  "compiler": {
    "name": "solc",
    "version": "0.5.8+commit.23d335f2.Emscripten.clang"
  },
  "schemaVersion": "3.0.10",
  "updatedAt": "2019-07-10T09:03:53.167Z",
  "devdoc": {
    "methods": {}
  },
  "userdoc": {
    "methods": {}
  }
}